{
  "contractName": "clima",
  "abi": [
    {
      "inputs": [],
      "stateMutability": "nonpayable",
      "type": "constructor"
    },
    {
      "inputs": [],
      "name": "Humedad",
      "outputs": [
        {
          "internalType": "string",
          "name": "",
          "type": "string"
        }
      ],
      "stateMutability": "view",
      "type": "function",
      "constant": true
    },
    {
      "inputs": [],
      "name": "Nubosidad",
      "outputs": [
        {
          "internalType": "string",
          "name": "",
          "type": "string"
        }
      ],
      "stateMutability": "view",
      "type": "function",
      "constant": true
    },
    {
      "inputs": [],
      "name": "Precipitacion",
      "outputs": [
        {
          "internalType": "string",
          "name": "",
          "type": "string"
        }
      ],
      "stateMutability": "view",
      "type": "function",
      "constant": true
    },
    {
      "inputs": [],
      "name": "Presion",
      "outputs": [
        {
          "internalType": "string",
          "name": "",
          "type": "string"
        }
      ],
      "stateMutability": "view",
      "type": "function",
      "constant": true
    },
    {
      "inputs": [],
      "name": "Temperatura",
      "outputs": [
        {
          "internalType": "string",
          "name": "",
          "type": "string"
        }
      ],
      "stateMutability": "view",
      "type": "function",
      "constant": true
    },
    {
      "inputs": [],
      "name": "Viento",
      "outputs": [
        {
          "internalType": "string",
          "name": "",
          "type": "string"
        }
      ],
      "stateMutability": "view",
      "type": "function",
      "constant": true
    },
    {
      "inputs": [],
      "name": "Visibilidad",
      "outputs": [
        {
          "internalType": "string",
          "name": "",
          "type": "string"
        }
      ],
      "stateMutability": "view",
      "type": "function",
      "constant": true
    },
    {
      "inputs": [],
      "name": "estado",
      "outputs": [
        {
          "internalType": "string",
          "name": "",
          "type": "string"
        }
      ],
      "stateMutability": "view",
      "type": "function",
      "constant": true
    },
    {
      "inputs": [],
      "name": "mensajeConcatenado",
      "outputs": [
        {
          "internalType": "string",
          "name": "",
          "type": "string"
        }
      ],
      "stateMutability": "view",
      "type": "function",
      "constant": true
    }
  ],
  "bytecode": "0x60806040526040518060400160405280600781526020017f536f6c6561646f00000000000000000000000000000000000000000000000000815250600190805190602001906200005192919062000312565b506040518060400160405280600281526020017f3235000000000000000000000000000000000000000000000000000000000000815250600290805190602001906200009f92919062000312565b506040518060400160405280600281526020017f353000000000000000000000000000000000000000000000000000000000000081525060039080519060200190620000ed92919062000312565b506040518060400160405280600281526020017f3130000000000000000000000000000000000000000000000000000000000000815250600490805190602001906200013b92919062000312565b506040518060400160405280600481526020017f3130303000000000000000000000000000000000000000000000000000000000815250600590805190602001906200018992919062000312565b506040518060400160405280600281526020017f313000000000000000000000000000000000000000000000000000000000000081525060069080519060200190620001d792919062000312565b506040518060400160405280600181526020017f3000000000000000000000000000000000000000000000000000000000000000815250600790805190602001906200022592919062000312565b506040518060400160405280600181526020017f3000000000000000000000000000000000000000000000000000000000000000815250600890805190602001906200027392919062000312565b503480156200028157600080fd5b506040518060200160405280600081525060009080519060200190620002a992919062000312565b50620002ba620002c060201b60201c565b620008e6565b60016002600360046005600660076008604051602001620002e9989796959493929190620007a1565b604051602081830303815290604052600090805190602001906200030f92919062000312565b50565b82805462000320906200044c565b90600052602060002090601f01602090048101928262000344576000855562000390565b82601f106200035f57805160ff191683800117855562000390565b8280016001018555821562000390579182015b828111156200038f57825182559160200191906001019062000372565b5b5090506200039f9190620003a3565b5090565b5b80821115620003be576000816000905550600101620003a4565b5090565b600081905092915050565b7f436c696d613a2000000000000000000000000000000000000000000000000000600082015250565b600062000405600783620003c2565b91506200041282620003cd565b600782019050919050565b7f4e487b7100000000000000000000000000000000000000000000000000000000600052602260045260246000fd5b600060028204905060018216806200046557607f821691505b6020821081036200047b576200047a6200041d565b5b50919050565b60008190508160005260206000209050919050565b60008154620004a5816200044c565b620004b18186620003c2565b94506001821660008114620004cf5760018114620004e15762000518565b60ff1983168652818601935062000518565b620004ec8562000481565b60005b838110156200051057815481890152600182019150602081019050620004ef565b838801955050505b50505092915050565b7f202d200000000000000000000000000000000000000000000000000000000000600082015250565b600062000559600383620003c2565b9150620005668262000521565b600382019050919050565b7f54656d70657261747572613a2000000000000000000000000000000000000000600082015250565b6000620005a9600d83620003c2565b9150620005b68262000571565b600d82019050919050565b7f48756d656461643a200000000000000000000000000000000000000000000000600082015250565b6000620005f9600983620003c2565b91506200060682620005c1565b600982019050919050565b7f5669656e746f3a20000000000000000000000000000000000000000000000000600082015250565b600062000649600883620003c2565b9150620006568262000611565b600882019050919050565b7f50726573696f6e3a200000000000000000000000000000000000000000000000600082015250565b600062000699600983620003c2565b9150620006a68262000661565b600982019050919050565b7f5669736962696c696461643a2000000000000000000000000000000000000000600082015250565b6000620006e9600d83620003c2565b9150620006f682620006b1565b600d82019050919050565b7f50726563697069746163696f6e3a200000000000000000000000000000000000600082015250565b600062000739600f83620003c2565b9150620007468262000701565b600f82019050919050565b7f4e75626f73696461643a20000000000000000000000000000000000000000000600082015250565b600062000789600b83620003c2565b9150620007968262000751565b600b82019050919050565b6000620007ae82620003f6565b9150620007bc828b62000496565b9150620007c9826200054a565b9150620007d6826200059a565b9150620007e4828a62000496565b9150620007f1826200054a565b9150620007fe82620005ea565b91506200080c828962000496565b915062000819826200054a565b915062000826826200063a565b915062000834828862000496565b915062000841826200054a565b91506200084e826200068a565b91506200085c828762000496565b915062000869826200054a565b91506200087682620006da565b915062000884828662000496565b915062000891826200054a565b91506200089e826200072a565b9150620008ac828562000496565b9150620008b9826200054a565b9150620008c6826200077a565b9150620008d4828462000496565b91508190509998505050505050505050565b6107f480620008f66000396000f3fe608060405234801561001057600080fd5b50600436106100925760003560e01c8063688e346711610066578063688e34671461010f5780639846b5d11461012d578063a777473d1461014b578063cb545a8314610169578063d9d9f37d1461018757610092565b8062133fc5146100975780631d355f57146100b55780632c229be6146100d35780635f61c9ec146100f1575b600080fd5b61009f6101a5565b6040516100ac919061073c565b60405180910390f35b6100bd610233565b6040516100ca919061073c565b60405180910390f35b6100db6102c1565b6040516100e8919061073c565b60405180910390f35b6100f961034f565b604051610106919061073c565b60405180910390f35b6101176103dd565b604051610124919061073c565b60405180910390f35b61013561046b565b604051610142919061073c565b60405180910390f35b6101536104f9565b604051610160919061073c565b60405180910390f35b610171610587565b60405161017e919061073c565b60405180910390f35b61018f610615565b60405161019c919061073c565b60405180910390f35b600880546101b29061078d565b80601f01602080910402602001604051908101604052809291908181526020018280546101de9061078d565b801561022b5780601f106102005761010080835404028352916020019161022b565b820191906000526020600020905b81548152906001019060200180831161020e57829003601f168201915b505050505081565b600780546102409061078d565b80601f016020809104026020016040519081016040528092919081815260200182805461026c9061078d565b80156102b95780601f1061028e576101008083540402835291602001916102b9565b820191906000526020600020905b81548152906001019060200180831161029c57829003601f168201915b505050505081565b600580546102ce9061078d565b80601f01602080910402602001604051908101604052809291908181526020018280546102fa9061078d565b80156103475780601f1061031c57610100808354040283529160200191610347565b820191906000526020600020905b81548152906001019060200180831161032a57829003601f168201915b505050505081565b6003805461035c9061078d565b80601f01602080910402602001604051908101604052809291908181526020018280546103889061078d565b80156103d55780601f106103aa576101008083540402835291602001916103d5565b820191906000526020600020905b8154815290600101906020018083116103b857829003601f168201915b505050505081565b600180546103ea9061078d565b80601f01602080910402602001604051908101604052809291908181526020018280546104169061078d565b80156104635780601f1061043857610100808354040283529160200191610463565b820191906000526020600020905b81548152906001019060200180831161044657829003601f168201915b505050505081565b600480546104789061078d565b80601f01602080910402602001604051908101604052809291908181526020018280546104a49061078d565b80156104f15780601f106104c6576101008083540402835291602001916104f1565b820191906000526020600020905b8154815290600101906020018083116104d457829003601f168201915b505050505081565b600280546105069061078d565b80601f01602080910402602001604051908101604052809291908181526020018280546105329061078d565b801561057f5780601f106105545761010080835404028352916020019161057f565b820191906000526020600020905b81548152906001019060200180831161056257829003601f168201915b505050505081565b600080546105949061078d565b80601f01602080910402602001604051908101604052809291908181526020018280546105c09061078d565b801561060d5780601f106105e25761010080835404028352916020019161060d565b820191906000526020600020905b8154815290600101906020018083116105f057829003601f168201915b505050505081565b600680546106229061078d565b80601f016020809104026020016040519081016040528092919081815260200182805461064e9061078d565b801561069b5780601f106106705761010080835404028352916020019161069b565b820191906000526020600020905b81548152906001019060200180831161067e57829003601f168201915b505050505081565b600081519050919050565b600082825260208201905092915050565b60005b838110156106dd5780820151818401526020810190506106c2565b838111156106ec576000848401525b50505050565b6000601f19601f8301169050919050565b600061070e826106a3565b61071881856106ae565b93506107288185602086016106bf565b610731816106f2565b840191505092915050565b600060208201905081810360008301526107568184610703565b905092915050565b7f4e487b7100000000000000000000000000000000000000000000000000000000600052602260045260246000fd5b600060028204905060018216806107a557607f821691505b6020821081036107b8576107b761075e565b5b5091905056fea26469706673582212201ccf5854e1050c903bc5a0dc5ee38bfc04af87bb90ab165a1ec153b33b6d910964736f6c634300080d0033",
  "immutableReferences": {},
  "source": "// SPDX-License-Identifier: MIT\npragma solidity ^0.8.13;\n\ncontract clima {\n    string public mensajeConcatenado;\n\n    constructor() {\n        mensajeConcatenado = \"\";\n        concatData();\n    }\n\n    function concatData() internal {\n        mensajeConcatenado = string(\n            abi.encodePacked(\n                \"Clima: \", estado, \" - \",\n                \"Temperatura: \", Temperatura, \" - \",\n                \"Humedad: \", Humedad, \" - \",\n                \"Viento: \", Viento, \" - \",\n                \"Presion: \", Presion, \" - \",\n                \"Visibilidad: \", Visibilidad, \" - \",\n                \"Precipitacion: \", Precipitacion, \" - \",\n                \"Nubosidad: \", Nubosidad\n            )\n        );\n    }\n\n    string public estado = \"Soleado\";\n    string public Temperatura = \"25\";\n    string public Humedad = \"50\";\n    string public Viento = \"10\";\n    string public Presion = \"1000\";\n    string public Visibilidad = \"10\";\n    string public Precipitacion = \"0\";\n    string public Nubosidad = \"0\";\n}",
  "sourcePath": "C:\\Users\\reyl1\\OneDrive\\Documentos\\PruebaSolidity\\contracts\\clima.sol",
  "compiler": {
    "name": "solc",
    "version": "0.8.13+commit.abaa5c0e.Emscripten.clang"
  },
  "schemaVersion": "3.4.16",
  "updatedAt": "2023-12-01T04:52:14.456Z",
  "networkType": "ethereum",
  "devdoc": {
    "kind": "dev",
    "methods": {},
    "version": 1
  },
  "userdoc": {
    "kind": "user",
    "methods": {},
    "version": 1
  }
}